{
  "contractName": "Tris",
  "abi": [
    {
      "inputs": [],
      "stateMutability": "nonpayable",
      "type": "constructor"
    },
    {
      "anonymous": false,
      "inputs": [
        {
          "indexed": false,
          "internalType": "address",
          "name": "playerA",
          "type": "address"
        },
        {
          "indexed": false,
          "internalType": "address",
          "name": "playerB",
          "type": "address"
        }
      ],
      "name": "GameStarted",
      "type": "event"
    },
    {
      "anonymous": false,
      "inputs": [
        {
          "indexed": true,
          "internalType": "address",
          "name": "previousOwner",
          "type": "address"
        },
        {
          "indexed": true,
          "internalType": "address",
          "name": "newOwner",
          "type": "address"
        }
      ],
      "name": "OwnershipTransferred",
      "type": "event"
    },
    {
      "inputs": [
        {
          "internalType": "uint256",
          "name": "",
          "type": "uint256"
        }
      ],
      "name": "gameBoard",
      "outputs": [
        {
          "internalType": "address",
          "name": "",
          "type": "address"
        }
      ],
      "stateMutability": "view",
      "type": "function"
    },
    {
      "inputs": [],
      "name": "gameOver",
      "outputs": [
        {
          "internalType": "bool",
          "name": "",
          "type": "bool"
        }
      ],
      "stateMutability": "view",
      "type": "function"
    },
    {
      "inputs": [],
      "name": "lastPlayed",
      "outputs": [
        {
          "internalType": "address",
          "name": "",
          "type": "address"
        }
      ],
      "stateMutability": "view",
      "type": "function"
    },
    {
      "inputs": [],
      "name": "owner",
      "outputs": [
        {
          "internalType": "address",
          "name": "",
          "type": "address"
        }
      ],
      "stateMutability": "view",
      "type": "function"
    },
    {
      "inputs": [],
      "name": "playerA",
      "outputs": [
        {
          "internalType": "address",
          "name": "",
          "type": "address"
        }
      ],
      "stateMutability": "view",
      "type": "function"
    },
    {
      "inputs": [],
      "name": "playerB",
      "outputs": [
        {
          "internalType": "address",
          "name": "",
          "type": "address"
        }
      ],
      "stateMutability": "view",
      "type": "function"
    },
    {
      "inputs": [
        {
          "internalType": "address",
          "name": "",
          "type": "address"
        },
        {
          "internalType": "uint256",
          "name": "",
          "type": "uint256"
        }
      ],
      "name": "playerMoves",
      "outputs": [
        {
          "internalType": "uint8",
          "name": "",
          "type": "uint8"
        }
      ],
      "stateMutability": "view",
      "type": "function"
    },
    {
      "inputs": [],
      "name": "renounceOwnership",
      "outputs": [],
      "stateMutability": "nonpayable",
      "type": "function"
    },
    {
      "inputs": [
        {
          "internalType": "address",
          "name": "newOwner",
          "type": "address"
        }
      ],
      "name": "transferOwnership",
      "outputs": [],
      "stateMutability": "nonpayable",
      "type": "function"
    },
    {
      "inputs": [],
      "name": "turnsTaken",
      "outputs": [
        {
          "internalType": "uint256",
          "name": "",
          "type": "uint256"
        }
      ],
      "stateMutability": "view",
      "type": "function"
    },
    {
      "inputs": [],
      "name": "winner",
      "outputs": [
        {
          "internalType": "address",
          "name": "",
          "type": "address"
        }
      ],
      "stateMutability": "view",
      "type": "function"
    },
    {
      "inputs": [
        {
          "internalType": "address",
          "name": "_player1",
          "type": "address"
        },
        {
          "internalType": "address",
          "name": "_player2",
          "type": "address"
        }
      ],
      "name": "startGame",
      "outputs": [],
      "stateMutability": "nonpayable",
      "type": "function"
    },
    {
      "inputs": [
        {
          "internalType": "uint8",
          "name": "_move",
          "type": "uint8"
        }
      ],
      "name": "yourMove",
      "outputs": [],
      "stateMutability": "nonpayable",
      "type": "function"
    },
    {
      "inputs": [],
      "name": "getPlayersMoves",
      "outputs": [
        {
          "internalType": "uint8[]",
          "name": "",
          "type": "uint8[]"
        }
      ],
      "stateMutability": "view",
      "type": "function"
    }
  ],
  "bytecode": "0x608060405234801561001057600080fd5b5061002d61002261003260201b60201c565b61003a60201b60201c565b6100fe565b600033905090565b60008060009054906101000a900473ffffffffffffffffffffffffffffffffffffffff169050816000806101000a81548173ffffffffffffffffffffffffffffffffffffffff021916908373ffffffffffffffffffffffffffffffffffffffff1602179055508173ffffffffffffffffffffffffffffffffffffffff168173ffffffffffffffffffffffffffffffffffffffff167f8be0079c531659141344cd1fd0a4f28419497f9722a3daafe3b4186f6b6457e060405160405180910390a35050565b61126c8061010d6000396000f3fe608060405234801561001057600080fd5b50600436106100ea5760003560e01c8063a285c54a1161008c578063c533913211610066578063c533913214610229578063dfbf53ae14610247578063eb23b56b14610265578063f2fde38b14610281576100ea565b8063a285c54a146101cf578063bc120879146101ed578063bdb337d11461020b576100ea565b80635d248301116100c85780635d24830114610159578063620633cb14610189578063715018a6146101a75780638da5cb5b146101b1576100ea565b806311bb1537146100ef5780631ea169e51461010d57806322f976ff14610129575b600080fd5b6100f761029d565b6040516101049190610bab565b60405180910390f35b61012760048036038101906101229190610c04565b6102c3565b005b610143600480360381019061013e9190610c93565b61062b565b6040516101509190610ce2565b60405180910390f35b610173600480360381019061016e9190610cfd565b61066e565b6040516101809190610bab565b60405180910390f35b6101916106ad565b60405161019e9190610de8565b60405180910390f35b6101af610768565b005b6101b961077c565b6040516101c69190610bab565b60405180910390f35b6101d76107a5565b6040516101e49190610bab565b60405180910390f35b6101f56107cb565b6040516102029190610e19565b60405180910390f35b6102136107d1565b6040516102209190610e4f565b60405180910390f35b6102316107e4565b60405161023e9190610bab565b60405180910390f35b61024f61080a565b60405161025c9190610bab565b60405180910390f35b61027f600480360381019061027a9190610e6a565b610830565b005b61029b60048036038101906102969190610eaa565b610933565b005b600260009054906101000a900473ffffffffffffffffffffffffffffffffffffffff1681565b600460149054906101000a900460ff1615610313576040517f08c379a000000000000000000000000000000000000000000000000000000000815260040161030a90610f34565b60405180910390fd5b60018160ff161015801561032b575060098160ff1611155b61036a576040517f08c379a000000000000000000000000000000000000000000000000000000000815260040161036190610fa0565b60405180910390fd5b600160009054906101000a900473ffffffffffffffffffffffffffffffffffffffff1673ffffffffffffffffffffffffffffffffffffffff163373ffffffffffffffffffffffffffffffffffffffff1614806104135750600260009054906101000a900473ffffffffffffffffffffffffffffffffffffffff1673ffffffffffffffffffffffffffffffffffffffff163373ffffffffffffffffffffffffffffffffffffffff16145b610452576040517f08c379a00000000000000000000000000000000000000000000000000000000081526004016104499061100c565b60405180910390fd5b600360009054906101000a900473ffffffffffffffffffffffffffffffffffffffff1673ffffffffffffffffffffffffffffffffffffffff163373ffffffffffffffffffffffffffffffffffffffff16036104e2576040517f08c379a00000000000000000000000000000000000000000000000000000000081526004016104d990611078565b60405180910390fd5b6104ea6109b6565b6007339080600181540180825580915050600190039060005260206000200160009091909190916101000a81548173ffffffffffffffffffffffffffffffffffffffff021916908373ffffffffffffffffffffffffffffffffffffffff160217905550600860003373ffffffffffffffffffffffffffffffffffffffff1673ffffffffffffffffffffffffffffffffffffffff1681526020019081526020016000208190806001815401808255809150506001900390600052602060002090602091828204019190069091909190916101000a81548160ff021916908360ff16021790555033600360006101000a81548173ffffffffffffffffffffffffffffffffffffffff021916908373ffffffffffffffffffffffffffffffffffffffff16021790555060056000815480929190610623906110c7565b919050555050565b6008602052816000526040600020818154811061064757600080fd5b9060005260206000209060209182820401919006915091509054906101000a900460ff1681565b6007818154811061067e57600080fd5b906000526020600020016000915054906101000a900473ffffffffffffffffffffffffffffffffffffffff1681565b6060600860003373ffffffffffffffffffffffffffffffffffffffff1673ffffffffffffffffffffffffffffffffffffffff16815260200190815260200160002080548060200260200160405190810160405280929190818152602001828054801561075e57602002820191906000526020600020906000905b82829054906101000a900460ff1660ff16815260200190600101906020826000010492830192600103820291508084116107275790505b5050505050905090565b610770610a20565b61077a6000610a9e565b565b60008060009054906101000a900473ffffffffffffffffffffffffffffffffffffffff16905090565b600160009054906101000a900473ffffffffffffffffffffffffffffffffffffffff1681565b60055481565b600460149054906101000a900460ff1681565b600360009054906101000a900473ffffffffffffffffffffffffffffffffffffffff1681565b600460009054906101000a900473ffffffffffffffffffffffffffffffffffffffff1681565b81600160006101000a81548173ffffffffffffffffffffffffffffffffffffffff021916908373ffffffffffffffffffffffffffffffffffffffff16021790555080600260006101000a81548173ffffffffffffffffffffffffffffffffffffffff021916908373ffffffffffffffffffffffffffffffffffffffff1602179055507f55b25d7f9b5bf8ea934ba7079455d2ba00c68ea7e66c13695275f6b75b95e5f8600160009054906101000a900473ffffffffffffffffffffffffffffffffffffffff16600260009054906101000a900473ffffffffffffffffffffffffffffffffffffffff1660405161092792919061110f565b60405180910390a15050565b61093b610a20565b600073ffffffffffffffffffffffffffffffffffffffff168173ffffffffffffffffffffffffffffffffffffffff16036109aa576040517f08c379a00000000000000000000000000000000000000000000000000000000081526004016109a1906111aa565b60405180910390fd5b6109b381610a9e565b50565b60065442118015610a145750600360009054906101000a900473ffffffffffffffffffffffffffffffffffffffff1673ffffffffffffffffffffffffffffffffffffffff163373ffffffffffffffffffffffffffffffffffffffff16145b15610a1e57600080fd5b565b610a28610b62565b73ffffffffffffffffffffffffffffffffffffffff16610a4661077c565b73ffffffffffffffffffffffffffffffffffffffff1614610a9c576040517f08c379a0000000000000000000000000000000000000000000000000000000008152600401610a9390611216565b60405180910390fd5b565b60008060009054906101000a900473ffffffffffffffffffffffffffffffffffffffff169050816000806101000a81548173ffffffffffffffffffffffffffffffffffffffff021916908373ffffffffffffffffffffffffffffffffffffffff1602179055508173ffffffffffffffffffffffffffffffffffffffff168173ffffffffffffffffffffffffffffffffffffffff167f8be0079c531659141344cd1fd0a4f28419497f9722a3daafe3b4186f6b6457e060405160405180910390a35050565b600033905090565b600073ffffffffffffffffffffffffffffffffffffffff82169050919050565b6000610b9582610b6a565b9050919050565b610ba581610b8a565b82525050565b6000602082019050610bc06000830184610b9c565b92915050565b600080fd5b600060ff82169050919050565b610be181610bcb565b8114610bec57600080fd5b50565b600081359050610bfe81610bd8565b92915050565b600060208284031215610c1a57610c19610bc6565b5b6000610c2884828501610bef565b91505092915050565b610c3a81610b8a565b8114610c4557600080fd5b50565b600081359050610c5781610c31565b92915050565b6000819050919050565b610c7081610c5d565b8114610c7b57600080fd5b50565b600081359050610c8d81610c67565b92915050565b60008060408385031215610caa57610ca9610bc6565b5b6000610cb885828601610c48565b9250506020610cc985828601610c7e565b9150509250929050565b610cdc81610bcb565b82525050565b6000602082019050610cf76000830184610cd3565b92915050565b600060208284031215610d1357610d12610bc6565b5b6000610d2184828501610c7e565b91505092915050565b600081519050919050565b600082825260208201905092915050565b6000819050602082019050919050565b610d5f81610bcb565b82525050565b6000610d718383610d56565b60208301905092915050565b6000602082019050919050565b6000610d9582610d2a565b610d9f8185610d35565b9350610daa83610d46565b8060005b83811015610ddb578151610dc28882610d65565b9750610dcd83610d7d565b925050600181019050610dae565b5085935050505092915050565b60006020820190508181036000830152610e028184610d8a565b905092915050565b610e1381610c5d565b82525050565b6000602082019050610e2e6000830184610e0a565b92915050565b60008115159050919050565b610e4981610e34565b82525050565b6000602082019050610e646000830184610e40565b92915050565b60008060408385031215610e8157610e80610bc6565b5b6000610e8f85828601610c48565b9250506020610ea085828601610c48565b9150509250929050565b600060208284031215610ec057610ebf610bc6565b5b6000610ece84828501610c48565b91505092915050565b600082825260208201905092915050565b7f67616d65206973206f7665720000000000000000000000000000000000000000600082015250565b6000610f1e600c83610ed7565b9150610f2982610ee8565b602082019050919050565b60006020820190508181036000830152610f4d81610f11565b9050919050565b7f6d6f766520696e76616c69640000000000000000000000000000000000000000600082015250565b6000610f8a600c83610ed7565b9150610f9582610f54565b602082019050919050565b60006020820190508181036000830152610fb981610f7d565b9050919050565b7f7468697320706c617965722069736e277420706c6179696e6700000000000000600082015250565b6000610ff6601983610ed7565b915061100182610fc0565b602082019050919050565b6000602082019050818103600083015261102581610fe9565b9050919050565b7f4e6f7420796f7572207475726e2e000000000000000000000000000000000000600082015250565b6000611062600e83610ed7565b915061106d8261102c565b602082019050919050565b6000602082019050818103600083015261109181611055565b9050919050565b7f4e487b7100000000000000000000000000000000000000000000000000000000600052601160045260246000fd5b60006110d282610c5d565b91507fffffffffffffffffffffffffffffffffffffffffffffffffffffffffffffffff820361110457611103611098565b5b600182019050919050565b60006040820190506111246000830185610b9c565b6111316020830184610b9c565b9392505050565b7f4f776e61626c653a206e6577206f776e657220697320746865207a65726f206160008201527f6464726573730000000000000000000000000000000000000000000000000000602082015250565b6000611194602683610ed7565b915061119f82611138565b604082019050919050565b600060208201905081810360008301526111c381611187565b9050919050565b7f4f776e61626c653a2063616c6c6572206973206e6f7420746865206f776e6572600082015250565b6000611200602083610ed7565b915061120b826111ca565b602082019050919050565b6000602082019050818103600083015261122f816111f3565b905091905056fea2646970667358221220443b007484e0ae3900c892fa5735bc921855e2b4533c7c621c8cf11d177d3c6964736f6c634300080f0033",
  "immutableReferences": {},
  "source": "// SPDX-License-Identifier: MIT\r\npragma solidity ^0.8.4;\r\n\r\n//import \"./TRR.sol\";\r\nimport \"@openzeppelin/contracts/access/Ownable.sol\";\r\n\r\ncontract Tris is Ownable {\r\n\r\n    \r\n    constructor () { \r\n    }\r\n\r\n\r\n    address public playerA ;\r\n    address public playerB ;\r\n    address public lastPlayed;\r\n    address public winner;\r\n    bool public gameOver;\r\n    uint256 public turnsTaken;\r\n    //uint8[] public moveTaken;\r\n    //uint reward;\r\n    uint session;\r\n    address[] public gameBoard;\r\n\r\n    struct Player {\r\n        address user;\r\n        bool turnIsFinished;\r\n        uint16[] _playerMoves;\r\n    }\r\n\r\n    struct Players{\r\n        address playerA;\r\n        address playerB;\r\n\r\n    }\r\n    mapping(address => uint8[]) public playerMoves;\r\n\r\n    /*struct PlayersMoves {\r\n        address player;\r\n        uint move;\r\n    }\r\n    \r\n    PlayersMoves[] public player_moves;*/\r\n    event GameStarted(address playerA, address playerB);\r\n\r\n    function addReward(uint) internal {\r\n       // .transferFrom(owner, address(this), 100);\r\n    }\r\n    function startGame(address _player1, address _player2) external {\r\n    playerA = _player1;\r\n    playerB = _player2;\r\n    emit GameStarted(playerA, playerB);\r\n    }  \r\n\r\n    function yourMove(uint8 _move) public {\r\n        require(!gameOver, \"game is over\");\r\n        //require(_move != moveTaken , \"Spot taken!\");\r\n        require(_move >= 1 && _move <= 9, \"move invalid\");\r\n        require(msg.sender == playerA || msg.sender == playerB, \"this player isn't playing\");\r\n        require(msg.sender != lastPlayed, \"Not your turn.\");\r\n\r\n        turn();\r\n\r\n \r\n        gameBoard.push(msg.sender);\r\n        playerMoves[msg.sender].push(_move);\r\n        lastPlayed = msg.sender;\r\n        //moveTaken = _move;\r\n        turnsTaken++;\r\n    }\r\n\r\n       /* if (isWinner(msg.sender)) {\r\n            winner = msg.sender;\r\n            gameOver = true;\r\n        } else if (turnsTaken == 9) {\r\n            gameOver = true;\r\n        }\r\n\r\n        \r\n    \r\n\r\n    function isWinner(address player) private view returns(bool) {\r\n\r\n              \r\n\r\n        //if (playerMoves[msg.sender] == )\r\n        uint8[3][8] memory winningCombos = [\r\n            [1,2,3],[4,5,6],[7,8,9],  // rows\r\n            [1,4,7],[2,5,8],[3,6,9],  // columns\r\n            [1,5,9],[3,5,7]           // diagonals\r\n        ];\r\n        \r\n        for (uint i = 0; i < winningCombos.length; i++) {\r\n            uint8[3] memory combo = winningCombos[i];\r\n            if (\r\n                gameBoard[combo[0]]==player &&\r\n                gameBoard[combo[1]]==player &&\r\n                gameBoard[combo[2]]==player\r\n            ) {\r\n                return true;\r\n            }\r\n            }\r\n        \r\n    }*/\r\n    \r\n    \r\n    function turn() internal {\r\n        if (block.timestamp > session && msg.sender == lastPlayed){\r\n            revert();\r\n        }\r\n    }\r\n\r\n\r\n        //emit Move(msg.sender, _move);\r\n        \r\n\r\n\r\n    function sendPrize() internal {\r\n\r\n    }\r\n\r\n    function getPlayersMoves() public view returns (uint8[] memory) {\r\n        return playerMoves[msg.sender];\r\n    }\r\n\r\n}\r\n ",
  "sourcePath": "C:\\Users\\Federico\\demos\\tris\\contracts\\tris.sol",
  "compiler": {
    "name": "solc",
    "version": "0.8.15+commit.e14f2714.Emscripten.clang"
  },
  "schemaVersion": "3.4.8",
  "updatedAt": "2022-09-01T20:19:16.944Z",
  "devdoc": {
    "kind": "dev",
    "methods": {
      "owner()": {
        "details": "Returns the address of the current owner."
      },
      "renounceOwnership()": {
        "details": "Leaves the contract without owner. It will not be possible to call `onlyOwner` functions anymore. Can only be called by the current owner. NOTE: Renouncing ownership will leave the contract without an owner, thereby removing any functionality that is only available to the owner."
      },
      "transferOwnership(address)": {
        "details": "Transfers ownership of the contract to a new account (`newOwner`). Can only be called by the current owner."
      }
    },
    "version": 1
  },
  "userdoc": {
    "kind": "user",
    "methods": {},
    "version": 1
  }
}